:100000000C942C010C9454010C9454010C94230C6A
:100010000C94230C0C94230C0C9454010C94540158
:100020000C9454010C9454010C9454010C945401FC
:100030000C9454010C9454010C9454010C945401EC
:100040000C9453130C9454010C945B120C943512C1
:100050000C9454010C9454010C9454010C945401CC
:100060000C9454010C945401084AD73B3BCE016ECA
:1000700084BCBFFDC12F3D6C74319ABD56833DDAFF
:100080003D00C77F11BED9E4BB4C3E916BAAAABE0E
:10009000000000803F05A84CCDB2D44EB93836A937
:1000A000020C50B9918688083CA6AAAA2ABE000074
:1000B00000803F004E414E494E495459494E46CD6D
:1000C000CCCC3D0AD7233C17B7D13877CC2B32950F
:1000D00095E6241FB14F0A000020410000C84200ED
:1000E000401C4620BCBE4CCA1B0E5AAEC59D7400B7
:1000F000407A10F35A00A0724E18090010A5D4E8F7
:100100000000E87648170000E40B54020000CA9A89
:100110003B000000E1F505000080969800000040DB
:10012000420F000000A08601000000102700000020
:1001300000E803000000006400000000000A000066
:100140000000000100000000002C76D888DC674F1A
:100150000823DFC1DFAE59E1B1B796E5E3E453C64A
:100160003AE651997696E8E6C28426EB898C9B6242
:10017000ED407C6FFCEFBC9C9F40F2BAA56FA5F4EC
:1001800090055A2AF75C936B6CF9676DC11BFCE014
:10019000E40D47FEF520E6B500D0ED902E03009467
:1001A0003577050080841E080000204E0A000000FC
:1001B000C80C333333330F986E12831141EF8D2106
:1001C00014893BE65516CFFEE6DB18D1844B381B6D
:1001D000F77C1D901DA4BBE424203284725E228132
:1001E00000C9F124ECA1E53D277C3C3E5E2B3D3F60
:1001F0002F5B5D3B2C2A225C0000000000240027BE
:10020000002A0000000008000201000003040700AB
:100210000000000000000000000000250028002B66
:100220000000000000230026002900040404040448
:100230000404040202020202020303030303030193
:10024000020408102040800102040810200102046A
:10025000081020001C20AE1511241FBECFEFD8E0DF
:10026000DEBFCDBF12E0A0E0B1E0E4E1FFE502C0F7
:1002700005900D92A835B107D9F726E0A8E5B2E0C0
:1002800001C01D92AD37B207E1F711E0CBE2D1E03A
:1002900004C02197FE010E94762BCA32D107C9F70C
:1002A0000E94C7150C947D2F0C940000DC01599618
:1002B000ED91FC915A973097B9F083899489A5897B
:1002C000B6894285538564857585841B950BA60B7D
:1002D000B70B811520E89207A105B10538F08FEF23
:1002E0009FE7A0E0B0E0089580E090E00895CF930C
:1002F000DF931F92CDB7DEB76983DC01ED91FC91EE
:100300000280F381E02D41E050E0BE016F5F7F4F3E
:1003100009950F90DF91CF91089520919C02309123
:100320009D022817390771F490919A0280919B02DF
:10033000981741F0E0919A02F0E0E85AFD4F808171
:1003400090E008958FEF9FEF089508951F93CF9346
:10035000DF93DC015C962D913C915D972115310571
:1003600039F481E090E013969C938E9312973DC0F0
:100370005196ED91FC91529750969C915097892FF0
:1003800080951FB75E964C915E9741FB772770F979
:1003900041FD6095F8944081772311F0492B01C00D
:1003A00048234083E9012197F1F748E0508160FF3D
:1003B00002C0592B01C058235083E9012197F1F75E
:1003C0006695415099F7772321F0908189238083A6
:1003D00003C08081982B90831FBF5C968D919C9168
:1003E0005D970197F1F721E030E0C901DF91CF91EE
:1003F0001F91089520919C0230919D022817390782
:1004000071F480919B0220919A0290E0805C9F4F52
:10041000821B910960E470E00E945B2B089580E0EC
:1004200090E0089520919C0230919D022817390791
:10043000B9F490919A0280919B02981789F0E0910B
:100440009A02F0E0E85AFD4F808120919A0230E054
:100450002F5F3F4F2F73332720939A0290E0089528
:100460008FEF9FEF0895089580E090E00895CF9377
:10047000DF93EC018D818823A1F18C8187FF2DC052
:100480006E857F858889998941E00E94D8138823E9
:1004900041F1EA8980E2E89FF0011124DF01A25DC9
:1004A000BC4F1097F1F08D81823050F44B895C89FC
:1004B0006D897E895C964D935D936D937C935F9778
:1004C0008F89988DA98DBA8DE25DFC4F938F828FB5
:1004D000B58BA48B8C818F778C83DF91CF910C941B
:1004E0009D1380E0DF91CF910895FC01818D928D65
:1004F000009711F00C94370208953F924F925F924B
:100500006F927F928F929F92AF92BF92CF92DF9223
:10051000EF92FF920F931F93CF93DF93CDB7DEB788
:100520002C970FB6F894DEBF0FBECDBF5C01DC0187
:100530005B968D909C905C971696CD90DD90ED909B
:10054000FC901997C114D104E104F10439F0BFEF14
:10055000CB1ADB0AEB0AFB0A312C07C0F401C0807E
:10056000D180E280F38033243394F4018185928535
:10057000A385B4859C01AD012F5F3F4F4F4F5F4F67
:1005800029873A874B875C87260137011D821E82A7
:100590001F821886F40181859285A385B4852D81FB
:1005A0003E814F815885281739074A075B0708F0B5
:1005B00063C089859A85AB85BC858C159D05AE0584
:1005C000BF0550F482E0C82ED12CE12CF12C92E032
:1005D000492E512C612C712C9E012F5F3F4FB7018A
:1005E000A601C4010E94C114882309F445C0898171
:1005F0009A81AB81BC81892B8A2B8B2B41F0260100
:1006000037019FEF491A590A690A790A05C0C414CB
:10061000D504E604F70491F02D813E814F81588581
:100620002F5F3F4F4F4F5F4F2D833E834F83588740
:100630003FEFC31AD30AE30AF30AACCF0FEF1FEF61
:100640002FEF3FE0B301A201C4010E9421148823CF
:1006500099F0D50116964D915D916D917C91199708
:10066000411551056105710549F093018201C401ED
:100670000E942114811102C080E02AC0D501169683
:100680004D925D926D927C921997332051F0D30177
:10069000C2010196A11DB11DF40180839183A28343
:1006A000B383F5018789908DA18DB28D892B8A2B1B
:1006B0008B2B69F4D50157964D925D926D927C9289
:1006C0005A9714968C911497806814968C9381E0B5
:1006D0002C960FB6F894DEBF0FBECDBFDF91CF9141
:1006E0001F910F91FF90EF90DF90CF90BF90AF9050
:1006F0009F908F907F906F905F904F903F90089564
:100700008F929F92AF92BF92CF92DF92EF92FF9221
:100710000F931F93CF93DF93EC018D81811102C062
:1007200080E077C00B891C892D893E890417150745
:1007300026073707A8F36A017B01823029F4CA86AD
:10074000DB86EC86FD860DC0C114D104E104F10402
:1007500051F41E821F82188619861A861B861C86F3
:100760001D8681E056C08A849B84AC84BD84EB8D59
:10077000FC8D258530E0275F3F4FB501A401415036
:10078000510961097109022E04C076956795579544
:1007900047950A94D2F7D701C6010197A109B1097B
:1007A00004C0B695A795979587952A95D2F7841793
:1007B0009507A607B70720F089288A288B2849F4CF
:1007C0004F89588D698D7A8D4E835F8368877987CD
:1007D00004C0841B950BA60BB70B4C015D018E0169
:1007E0000A5F1F4F81149104A104B10409F4A7CF3B
:1007F0004E815F816885798598018B8D9C8D0E94E3
:10080000C11491E0891A9108A108B1088111EACFB9
:1008100087CFDF91CF911F910F91FF90EF90DF90E5
:10082000CF90BF90AF909F908F9008958F929F929E
:10083000AF92BF92CF92DF92EF92FF920F931F93EE
:10084000CF93DF9300D000D0CDB7DEB77C0180E23C
:10085000689F600111249601225D3C4FD9011B96CF
:100860009C91917121F0842F827409F097C0142F0C
:10087000F701628B8091540190915501A09156012E
:10088000B091570186879787A08BB18BF601E25D07
:10089000FC4F4489558960E070E0BA015527442730
:1008A000D70157964D935D936D937C935A97828DA4
:1008B000938DA0E0B0E0482B592B6A2B7B2BD701FE
:1008C00057964D935D936D937C935A97D9011B96E0
:1008D0008C91887159F4848D958DA68DB78DF70113
:1008E000838B948BA58BB68B81E012C0803109F08D
:1008F00055C097012D5E3F4FD7015B968D919C911E
:100900005C970E944515882309F448C084E0F701EC
:100910008583812F8F70D70114968C931497F701DC
:1009200016821782108611861A961D921D921D92AC
:100930001C921D9716FF34C015968C91813071F56D
:1009400011FF2CC0F7014389548965897689452BAD
:10095000462B472B09F461C040E050E0BA01C701C3
:100960000E9480038823D1F0F7018788908CA18CA6
:10097000B28CC38CD48C82E090E0A0E0B0E0F601B1
:1009800080839183A283B3839E012F5F3F4FB50184
:10099000A401C6010E94C114811104C080E03DC0C1
:1009A00081E03BC000E010E09801B501A401C60160
:1009B0000E942114882391F389809A80AB80BC80A7
:1009C000D60157968C91803129F088EF9FEFAFEFD9
:1009D000BFE004C088EF9FEFA0E0B0E08816990662
:1009E000AA06BB0688F2D70157961D921D921D924A
:1009F0001C925A97F701138A148A158A168A8481E1
:100A000080688483C7010E943702882339F240E05E
:100A100050E0BA01C7010E9480030F900F900F9021
:100A20000F90DF91CF911F910F91FF90EF90DF908A
:100A3000CF90BF90AF909F908F900895CF93DF930A
:100A4000EC010E943702882311F01D8281E0DF91C2
:100A5000CF9108958FB7F894809199028FBF089530
:100A600061E0FC0184810E94B6128091980281119C
:100A70001092980208958EBD00000DB407FEFDCFC0
:100A80008EB508958FEF0C943B050F931F93CF9372
:100A9000DF93EB010E9447138B010E9442058F3FB9
:100AA00049F00E944713601B710B6C177D07A8F378
:100AB00080E001C081E0DF91CF911F910F910895F7
:100AC000CF93DF93EC018E81882389F08F81988505
:100AD0009C012F5F3F4F38872F838230924018F45C
:100AE0000E944205F3CFCE010E9430051E82DF91A5
:100AF000CF9108958CBD9DBD0895CF93DF93EC01F8
:100B000080919802811109C081E0809398028091C0
:100B1000CD059091CE050E947A0560E08C81DF9131
:100B2000CF910C94B612CF92DF92FF920F931F9346
:100B3000CF93DF9300D000D0CDB7DEB76C01F62E97
:100B400029833A834B835C830E946005C6010E941F
:100B50007D056CE271E0C6010E9445058F2D806421
:100B60000E943B0508E110E05C814B813A812981BC
:100B7000DA01C901002E04C0B695A795979587950F
:100B80000A94D2F729833A834B835C830E943B0506
:100B90000850110929813A814B815C81083F8FEF10
:100BA000180731F7FF2029F0E8E0FE1204C087E8BB
:100BB00003C085E901C08FEF0E943B0510E00E9451
:100BC0004205F601828787FF04C01F3F11F01F5FB7
:100BD000F6CF0F900F900F900F90DF91CF911F9154
:100BE0000F91FF90DF90CF900895AF92BF92CF9278
:100BF000DF92EF92FF920F931F93CF93DF93EC015D
:100C00006901C801820F931F8130924008F070C0C3
:100C10008E81882371F088819981AA81BB814817D0
:100C200059076A077B0729F48F819885C816D9066A
:100C3000B0F5488359836A837B838B85833039F091
:100C400089E0440F551F661F771F8A95D1F79A01D7
:100C5000AB0161E1CE010E949305882319F083E086
:100C60008D8346C00E9447135B010E9442058A871C
:100C70008F3F49F40E9447136A197B096D32714016
:100C8000A0F38FE003C08E3F31F08DE08D83CE0165
:100C90000E9430052DC018861F8281E08E838F81CF
:100CA00098858C159D0540F40E9442058F8198859A
:100CB000019698878F83F3CF6701E00EF11ECE1463
:100CC000DF0431F00E944205F60181936F01F7CFF6
:100CD0008F819885080F191F18870F8389858823AE
:100CE00019F00115124048F0CE010E94600505C0C0
:100CF000CE010E94300580E001C081E0DF91CF91FC
:100D00001F910F91FF90EF90DF90CF90BF90AF9029
:100D100008952F923F924F925F926F927F928F929F
:100D20009F92AF92BF92CF92DF92EF92FF920F937A
:100D30001F93CF93DF9300D0CDB7DEB7FC01858141
:100D4000882309F4D9C0848180FFD6C021E02A839A
:100D5000438954896589768982859385A485B5857B
:100D6000481759076A077B0709F41A826F013A810D
:100D7000832F90E0DE0111964D013F01B6E06B0E2E
:100D8000711C892B09F47DC0D6011A964D915D9195
:100D90006D917C911D975A01B1E0BB22F60125812E
:100DA0001A012B0189E056944794379427948A9529
:100DB000D1F7838D948D223061F4FC01828D938D67
:100DC000A48DB58DBC01CD01620D731D841D951DD3
:100DD00045C0DC0114961C9111501221A114B104DC
:100DE000D1F4111118C0452B462B472B51F4F601B5
:100DF0008789908DA18DB28D86839783A087B187D7
:100E00000AC0468157816085718593010E94C11493
:100E1000882309F471C0F601238D348D8681978172
:100E2000A085B1850297A109B109AC01BD01F90105
:100E3000058404C0440F551F661F771F0A94D2F71C
:100E400086859785A089B189840F951FA61FB71F36
:100E5000BC01CD01610F711D811D911DD60114963C
:100E60002C9126FF14C0009154011091550120913E
:100E7000560130915701601771078207930751F5AA
:100E800006C0FA81FF23C1F1898190E037C040E0BC
:100E90000E94D813882381F1F501E25DFC4FD40153
:100EA000CF010196E817F90719F021912D93FACF98
:100EB000EFEF8E1A9E0AF60182859385A485B5858B
:100EC0000196A11DB11D82879387A487B58780E015
:100ED00090E057CF740101E010E09501AB01BC0137
:100EE00080912E0590912F050E94F505882321F011
:100EF000BFEF8B1A9B0ADFCF8FEF9FEF0F900F9002
:100F0000DF91CF911F910F91FF90EF90DF90CF90E5
:100F1000BF90AF909F908F907F906F905F904F9019
:100F20003F902F9008954F925F926F927F929F9281
:100F3000AF92BF92CF92DF92EF92FF920F931F93E7
:100F4000CF93DF93CDB7DEB72B970FB6F894DEBF04
:100F50000FBECDBF7C01DC011596AC90A1108AC1FB
:100F6000FE0131966F0190E28BE08E0F91938E130C
:100F7000FDCFDA0130E087E09D91992339F19E326F
:100F800019F0E9EEF1E00AC08A3009F474C138E0E2
:100F90008AE0F2CF3196491709F46DC144914111AD
:100FA000F9CF831708F467C14FED490F4E3508F0AC
:100FB00062C141E0430FF601E30FF11D3FE9390F34
:100FC0003A3108F490529083342FD6CF8981803201
:100FD00009F451C1B22E8B01DB015B968D919C917E
:100FE0005C97F701948F838F16961D921D921D9228
:100FF0001C921997FB011286138614861586712C94
:10100000F80182859385A485B585438954896589CE
:10101000768984179507A607B70708F061C025E011
:10102000B695A795979587952A95D1F7F82FFF70D4
:101030006F2ED80115968C91823008F41CC1C8011E
:101040000E94890697FD17C1F80182859385A485C2
:10105000B5854F96A11DB11D82879387A487B5875B
:10106000F0E26F9EC0011124BC01625D7C4F6115EE
:10107000710509F400C1DB012C91222319F0253EF2
:10108000C1F427C071100EC0F701628A409154016B
:1010900050915501609156017091570146875787CD
:1010A000608B718BFC01E25DFC4F8081811113C06C
:1010B00015C04BE050E0C6010E94AE2C892B09F010
:1010C0009FCF8B2D8073803309F4D5C04B2D662DB7
:1010D000CCC07720C9F27724739492CF772473948D
:1010E0008B2D8271823109F0C6C07720D1F0D701F3
:1010F0001E966D917D918D919C91519741E00E943A
:10110000D813882309F4B7C0F7016289F0E26F9F12
:10111000B0011124625D7C4F6115710509F079C041
:10112000AAC0D80115968C91823009F4A4C0C801D8
:101130000E947D02882309F49EC0D8015B96ED9140
:10114000FC915C9716964D905D906D907C901997F0
:10115000B2E04B1A510861087108058404C0440CC0
:10116000551C661C771C0A94D2F786859785A08942
:10117000B189480E591E6A1E7B1E9480E1E04E1A0A
:10118000510861087108992009F10E949D13882374
:1011900009F471C0EEE2F3E0119225E0EE32F207BD
:1011A000D9F7D301C201890D911DA11DB11D8093F5
:1011B000540190935501A0935601B093570180912B
:1011C00067068160809367069A94DDCFD8015B96AD
:1011D000ED91FC915C9780E092E0A0E0B0E00584A6
:1011E00004C0880F991FAA1FBB1F0A94D2F7F801E9
:1011F0004389548965897689840F951FA61FB71F77
:10120000838B948BA58BB68BD70152961C926EE282
:1012100073E080E2FB0111928A95E9F78BE0F60119
:10122000DB0101900D928A95E1F781E298E2DB0102
:1012300051969C938E93509720E038E01F963C93F4
:101240002E931E9753969C938E93529759969C93E8
:101250008E93589757963C932E9356970E949D13C2
:10126000882349F04B2DF7016289C7010E941604BB
:10127000A82E01C0A12C8A2D2B960FB6F894DEBFA4
:101280000FBECDBFDF91CF911F910F91FF90EF90D7
:10129000DF90CF90BF90AF909F907F906F905F90C6
:1012A0004F900895FC01818D928D009711F00C9460
:1012B00089068FEF9FEF08950F931F93CF93DF93CE
:1012C000FC01818D928D0097B9F0EF010E94890693
:1012D0008C010F3F8FEF180791F0898D9A8DFC01DB
:1012E00042855385648575854150510961097109AD
:1012F0000E948003C80105C080E090E002C08FEF2B
:101300009FEFDF91CF911F910F910895EF92FF9280
:101310000F931F93CF93DF93EC0179014115510592
:101320006105710511F482E13CC08B85833039F091
:1013300089E0440F551F661F771F8A95D1F79A01E0
:10134000AB0168E1CE010E949305882311F084E08F
:1013500028C08EEF0E943B0587018EEFF81AF80136
:1013600081918F010E943B050E151F05C1F78FEF7C
:101370000E943B058FEF0E943B050E9442058A8731
:101380008F71853031F081E18D83CE010E9430056F
:1013900009C068E572E0CE010E944505811107C0D1
:1013A00085E18D83CE010E94300580E013C020E0EE
:1013B00030E0A9016DE0CE010E949305811104C0C7
:1013C0000E944205882311F084E1EBCFCE010E94F8
:1013D000300581E0DF91CF911F910F91FF90EF9049
:1013E00008952F923F924F925F926F927F928F92C9
:1013F0009F92AF92BF92CF92DF92EF92FF920F93A4
:101400001F93CF93DF9300D000D0CDB7DEB78C0110
:101410005B011A01DC0115968C9115978130C9F496
:1014200014968C9181FF15C082FF1BC0F80143897F
:1014300054896589768982859385A485B5858417C5
:101440009507A607B70769F0C8010E9480038111BC
:1014500008C081E090E0F8019383828380E090E00F
:1014600039C1610183C0D8015B968D919C915C97D5
:10147000FC01248121502A013B0139E076946794D4
:10148000579447943A95D1F7722E74207A01F1E07F
:10149000FF22772009F476C080E092E08E199F0940
:1014A00046018C159D0508F44C01D8015B962D91E1
:1014B0003C915C9716968D919D910D90BC91A02DBD
:1014C0000297A109B109F901058404C0880F991F89
:1014D000AA1FBB1F0A94D2F7468557856089718978
:1014E000840F951FA61FB71F9C01AD01270D311D4D
:1014F000411D511D29013A01811432E0930609F082
:1015000088C08091540190915501A0915601B091ED
:10151000570184159505A605B70559F48FEF9FEF80
:10152000DC018093540190935501A0935601B09330
:1015300057019501B301A20180912E0590912F05CD
:101540000E948609882309F484CF9EEFB91AC8182F
:10155000D908F80182859385A485B585880D991DE4
:10156000A11DB11D82879387A487B587D8011A96DC
:101570004D915D916D917C911D97C114D10409F03D
:1015800072CF87C0E114F10409F086CF16964D9111
:101590005D916D917C91199741155105610571051A
:1015A00059F457968D919D910D90BC91A02D009767
:1015B000A105B10541F521C09E012F5F3F4F0E945B
:1015C000C114882309F44BCF89819A81AB81BC81F6
:1015D000F801238D348DF9012789203129F048EF56
:1015E0005FEF6FEF7FE004C048EF5FEF60E070E017
:1015F00084179507A607B70730F0C8010E947D023F
:1016000081114ACF26CFF80186839783A087B187BF
:1016100043CFE114F10429F5D8011A964D915D915B
:101620006D917C911D9753968D919D910D90BC91DC
:10163000A02D481759076A077B0798F00E949D1351
:10164000882309F406CF40925401509255016092CC
:1016500056017092570180916706816080936706FA
:1016600008C041E0C301B2010E94D813882309F4E5
:10167000F0CED501F701E25DFC4FCF01880D991D39
:10168000E817F90719F02D912193FACFA80CB91C8E
:101690005ECF53968D919D910D90BC91A02D841796
:1016A0009507A607B70740F4F801438B548B658B69
:1016B000768B848180688483D80114968C9183FD15
:1016C00002C0C10107C0C8010E943702882309F483
:1016D000C0CEF7CF0F900F900F900F90DF91CF916A
:1016E0001F910F91FF90EF90DF90CF90BF90AF9040
:1016F0009F908F907F906F905F904F903F902F9032
:101700000895CF93DF93EC01898D9A8D009739F47A
:1017100081E090E09B838A8380E090E00BC0FC0135
:10172000138212820E94F109E98DFA8D22813381A0
:10173000232B71F7DF91CF910895FC01DB01129605
:101740008D919C9113979383828384E791E0918399
:10175000808314968C911497848315968C91159799
:10176000858316964D915D916D917C911997468375
:101770005783608771871A964D915D916D917C9129
:101780001D9742875387648775871E964D915D919B
:101790006D917C91519746875787608B718B5296DC
:1017A0008C915297828B53964D915D916D917C9166
:1017B0005697438B548B658B768B57964D915D91E5
:1017C0006D917C915A97478B508F618F728F5B968A
:1017D0008D919C915C97948F838F0895EF92FF92E7
:1017E0000F931F93CF93DF93EC017B018A011B8240
:1017F0001A8288EE93E0A0E0B0E08C839D83AE83F4
:10180000BF8380E891E0998388838DE190E00E9416
:101810007C2B9A8F898F009779F02DE1F701DC01FD
:1018200001900D922A95E1F74CE050E0B801CE010D
:101830000C960E94CD2C188EDF91CF911F910F91A5
:10184000FF90EF9008951F920F920FB60F92112400
:101850002F933F934F935F936F937F938F939F93B8
:10186000AF93BF93EF93FF93E0919C02F0919D02A1
:10187000309709F451C0968DA685B785858591FF6F
:1018800004C09C91892329F447C09C91892309F0C5
:1018900043C0A389B4899C918589809589238C93C1
:1018A000868997890197F1F7608D718DA685B78537
:1018B000558538E020E0CB010197F1F7822F90E0C9
:1018C00095958795282F4C91452309F02068315034
:1018D00091F7868D81FD209580919B0290E0019685
:1018E0008F73992730919A02381749F0A0919B0283
:1018F000B0E0A85ABD4F2C9380939B0203C0868D05
:101900008160868F828D938D0197F1F7A389B489C9
:101910009C918589892B8C93FF91EF91BF91AF9119
:101920009F918F917F916F915F914F913F912F91F7
:101930000F900FBE0F901F901895E0919C02F091B0
:101940009D02E817F90769F4A389B4899C918589F8
:10195000809589238C9310929D0210929C0281E0C5
:10196000089580E008952F923F924F925F926F9278
:101970007F928F929F92AF92BF92CF92DF92EF921F
:10198000FF920F931F93CF93DF93CDB7DEB72C97C2
:101990000FB6F894DEBF0FBECDBF1B01D22E142FA1
:1019A000032FF52E9B878A87812C912C2C8744242A
:1019B0004A9493E0592E612C712C28E0E22E821477
:1019C00093040CF05BC1EA85FB8521913191FB8783
:1019D000EA8780913506909136062817390708F076
:1019E0004CC06C8540913A06442369F0149FC001B5
:1019F0001124A92F049FC0011124792FD49EC00166
:101A00001124692F02C0702FA12F509140068091A0
:101A10003D06E0913B06F0913C06581309C0A90130
:101A2000440F551FCA01820F931F8E0F9F1F13C0B3
:101A3000C901880F991F880F991F8E0F9F1FFC01E6
:101A4000E50FF11D442329F0F49E90011124232F6A
:101A500001C02F2D208320913D06FC01E20FF11DD6
:101A6000A08320913E06FC01E20FF11D70832091BE
:101A70003F06FC01E20FF11D6083F0E4F0937C006F
:101A800080917A00806480937A0080917A0086FD4C
:101A9000FCCFA091780080917900B0E0B82B2FEFB7
:101AA00030E00E946F2BA30192010E940428822F34
:101AB000CC24C394C20E20913A06C216A1F1A09084
:101AC0003B06B0903C062150B9F08F3F59F430E00E
:101AD00040E050E06FEF7FEF80E090E00E9404284C
:101AE000B9010CC08C2D90E0982F88270197622FA8
:101AF00070E00E94472B02C060E070E0F501409169
:101B0000370650913806CF018A199B09841795072B
:101B100040F44081469FC001479F900D112491934E
:101B2000EECFC0923A0680913B0690913C06892BFD
:101B300009F4A0C00E942213209141063091420670
:101B40004091430650914406DC01CB01821B930B6C
:101B5000A40BB50B8C329140A105B10558F3F89454
:101B600080913706909138069A838983E0913B06ED
:101B7000F0913C06DF0111968081898790913306B0
:101B8000E0914506F091460680914706992309F4B5
:101B90002DC09081982B98879081809589238F8381
:101BA0008F818C83EB8238854F8169855B812C81A5
:101BB00089819A81308367FD232F5A952083242FB2
:101BC00039F0661F00C000004083000000C0F2CF63
:101BD00058E06D9140830000019761F7F09346064D
:101BE000E093450669875B832C8337C09081982BEF
:101BF00098879081809589238F838F818E83ED8252
:101C000038854F8169855D812E8189819A813083F4
:101C100067FD232F00C000C0208300C000C000C0AB
:101C200000C000C040830000242F5A9541F0661F79
:101C3000000000C000C000C000C000C0E8CF58E0F5
:101C40006D9100C0408300C0019709F7F0934606EC
:101C5000E093450669875D832E839A838983789410
:101C60000E942213609341067093420680934306BC
:101C7000909344068FEF881A980AA1CE2C960FB63F
:101C8000F894DEBF0FBECDBFDF91CF911F910F91B2
:101C9000FF90EF90DF90CF90BF90AF909F908F908C
:101CA0007F906F905F904F903F902F9008958F920C
:101CB0009F92AF92BF92CF92DF92EF92FF92CF931B
:101CC000DF93EC01CB0160E070E00E9486216B01A4
:101CD0007C010E94CA29CB0164E670E00E945B2B64
:101CE000072E000C880B990B0E944C244B015C01C1
:101CF00020E030E048EC52E40E94AB249B01AC01B0
:101D0000C701B6010E94742820E030E040E752E4A9
:101D10000E9458299B01AC01C501B4010E9475289D
:101D200028812B7F233509F49058DF91CF91FF90C4
:101D3000EF90DF90CF90BF90AF909F908F900895DD
:101D4000CF92DF92EF92FF920F931F93CF93DF9387
:101D50006C017A018B01C0E0D0E0CE15DF0589F07F
:101D6000D8016D918D01D601ED91FC910190F0812A
:101D7000E02DC6010995892B11F47E0102C0219640
:101D8000ECCFC701DF91CF911F910F91FF90EF90A2
:101D9000DF90CF9008958F929F92AF92BF92CF9293
:101DA000DF92EF92FF92CF93DF93C82F8FEC95E0F5
:101DB00090932F0580932E05CC2369F1C53010F048
:101DC00080E00DC140E060E070E0CB010E94D813DC
:101DD0008823B1F320E1C29FC0011124825E9C4F91
:101DE000FC01E254FE4F20812F7751F73C96408151
:101DF000518162817381443651056105710500F39B
:101E00003497C080D180E280F380C114D104E10412
:101E1000F10421F4D5CFC12CD12C760140E0C701CB
:101E2000B6010E94D813882359F28091390390910A
:101E30003A038115924021F6A0913E03AA2309F4AA
:101E4000BFCF60913C0370913D036115710509F4AA
:101E5000B7CF20913B03222309F4B2CFA093ED0525
:101E60002093DF0580E030E0E1E0F0E0C82FAF0133
:101E7000082E02C0440F551F0A94E2F724173507B5
:101E800041F0982F8F5F983089F789E08093E805BB
:101E900097CF8093E80520914403309145032115A5
:101EA000310519F040E050E008C020915203309114
:101EB000530340915403509155032093E005309310
:101EC000E1054093E2055093E30546015701860E74
:101ED000971EA11CB11C8092EE059092EF05A09276
:101EE000F005B092F105E0913F03F0914003F093CB
:101EF000F405E093F305B0E00E942328860E971EB8
:101F0000A81EB91E8092F5059092F605A092F705DD
:101F1000B092F80585E0EE0FFF1F8A95E1F7E150DA
:101F2000FE4FEF2FFF27E6958E0E9F1EA11CB11CC2
:101F30008092E9059092EA05A092EB05B092EC053B
:101F400020914103309142032115310521F0A9016F
:101F500060E070E008C040914E0350914F036091E3
:101F6000500370915103D701C60188199909AA0934
:101F7000BB09840F951FA61FB71F04C0B695A79570
:101F800097958795CA95D2F78093E4059093E505D8
:101F9000A093E605B093E705853F2FE09207A105E2
:101FA000B10510F48CE018C0853F9F4FA105B10525
:101FB00010F480E111C080915A0390915B03A091CD
:101FC0005C03B0915D038093F5059093F605A093B3
:101FD000F705B093F80580E28093F20581E0DF9188
:101FE000CF91FF90EF90DF90CF90BF90AF909F90F8
:101FF0008F900895E0911806F09119060190F081F4
:10200000E02D682F88E196E009946115710579F05B
:10201000FB0101900020E9F73197AF01461B570BF8
:10202000DC01ED91FC910280F381E02D099480E0C8
:1020300090E008958F929F92AF92BF920F931F935B
:10204000CF93DF93CDB7DEB7A1970FB6F894DEBF7D
:102050000FBECDBF19A2423008F44AE08E010F5DD9
:102060001F4F842E912CA12CB12CA50194010E940C
:10207000E227E62FB901CA0101501109EA3014F430
:10208000E05D01C0E95CD801EC93232B242B252BC8
:1020900061F7B80188E196E00E940510A1960FB69D
:1020A000F894DEBF0FBECDBFDF91CF911F910F918E
:1020B000BF90AF909F908F9008954F925F926F92D4
:1020C0007F928F929F92AF92BF92CF92DF92EF92C8
:1020D000FF926B017C01B42E9B01AC010E94272B67
:1020E000882319F06CE472E027C026013701E894D8
:1020F00077F82FEF3FEF4FE75FE7C301B2010E9490
:10210000272B81110DC02FEF3FEF4FE75FE7C30192
:10211000B2010E94452418161CF460E572E00CC060
:102120002FEF3FEF4FE75FE4C701B6010E94C82AD7
:10213000181694F464E572E088E196E0FF90EF9061
:10214000DF90CF90BF90AF909F908F907F906F90D7
:102150005F904F900C9405102FEF3FEF4FE75FEC2F
:10216000C701B6010E94452487FDE4CF20E030E09E
:10217000A901C701B6010E94452487FF09C08DE26D
:102180000E94FA0F4C01F7FAF094F7F8F09402C0AD
:10219000812C912CA12C60E070E080E09FE3AB14D7
:1021A00041F020E030E040E251E40E945829A3943D
:1021B000F6CF9B01AC01C701B6010E9475282B0127
:1021C0003C010E94D1296B017C010E944A249B01A1
:1021D000AC01C301B2010E9474282B013C014AE00A
:1021E000C701B6010E941A107C01E80CF91CBB2043
:1021F00029F08EE20E94FA0FE80EF91EDB2CDD209A
:1022000021F120E030E040E251E4C301B2010E943C
:10221000AB242B013C010E94D1294B01A12CB12CF4
:102220004AE0C501B4010E941A10E80EF91EC5016A
:10223000B4010E944A249B01AC01C301B2010E9477
:1022400074282B013C01DA94DACFC701FF90EF909C
:10225000DF90CF90BF90AF909F908F907F906F90C6
:102260005F904F9008950F931F93CF93DF93EC01EE
:102270000E9405108C016AE272E0CE010E940510F6
:10228000800F911FDF91CF911F910F910895FC0155
:10229000538D448D252F30E0842F90E0821B930BCB
:1022A000541710F0CF96089501970895FC01918D71
:1022B000828D981761F0828DDF01A80FB11D5D96A8
:1022C0008C91928D9F5F9F73928F90E008958FEF16
:1022D0009FEF0895FC01918D828D981731F0828DCA
:1022E000E80FF11D858D90E008958FEF9FEF089521
:1022F000FC01918D228D892F90E0805C9F4F821B85
:1023000091098F739927089580E395E00E947811D1
:1023100021E0892B09F420E0822F0895FC01848DAF
:10232000DF01A80FB11DA35ABF4F2C91848D90E0FF
:1023300001968F739927848FA689B7892C93A089DA
:10234000B1898C9180648C93938D848D981306C091
:102350000288F389E02D80818F7D80830895EF923C
:10236000FF920F931F93CF93DF93EC0181E0888F4F
:102370009B8D8C8D981305C0E889F989808185FD36
:1023800024C0F62E0B8D10E00F5F1F4F0F73112727
:10239000E02E8C8DE8120CC00FB607FCFACFE8894E
:1023A000F989808185FFF5CFCE010E948E11F1CF92
:1023B0008B8DFE01E80FF11DE35AFF4FF0820B8F6A
:1023C000EA89FB898081806207C0EE89FF8960838A
:1023D000E889F98980818064808381E090E0DF91E1
:1023E000CF911F910F91FF90EF900895CF93DF93BE
:1023F000EC01888D8823C9F0EA89FB89808185FDFD
:1024000005C0A889B9898C9186FD0FC00FB607FC5D
:10241000F5CF808185FFF2CFA889B9898C9185FF9E
:10242000EDCFCE010E948E11E7CFDF91CF910895BD
:1024300080E090E0892B29F00E94841181110C9496
:10244000000008950E94A92CCF93DF931F92CDB76F
:10245000DEB7698341E050E0BE016F5F7F4F0E94AD
:10246000F1090F90DF91CF9108951F920F920FB64F
:102470000F9211242F933F934F935F936F937F930A
:102480008F939F93AF93BF93EF93FF9380E395E078
:102490000E948E11FF91EF91BF91AF919F918F910B
:1024A0007F916F915F914F913F912F910F900FBE50
:1024B0000F901F9018951F920F920FB60F92112434
:1024C0002F938F939F93EF93FF93E0914005F091AB
:1024D00041058081E0914605F091470582FD12C0DB
:1024E0009081809149058F5F8F7320914A058217F3
:1024F00051F0E0914905F0E0E05DFA4F958F80934F
:10250000490501C08081FF91EF919F918F912F919B
:102510000F900FBE0F901F901895833081F028F414
:10252000813099F08230A1F008958730A9F0883089
:10253000B9F08430D1F4809180008F7D03C0809108
:1025400080008F7780938000089584B58F7702C0D4
:1025500084B58F7D84BD08958091B0008F7703C0CE
:102560008091B0008F7D8093B00008951F93CF932A
:10257000DF93282F30E0F901ED5FFD4F8491F901E1
:10258000E15CFD4FD491F901E55DFD4FC491CC2391
:10259000C9F0162F81110E948D12EC2FF0E0EE0F82
:1025A000FF1FE95EFD4FA591B4918FB7F89411110B
:1025B00005C09C91ED2FE095E92302C0EC91ED2B35
:1025C000EC938FBFDF91CF911F910895CF93DF934D
:1025D00090E0FC01E15CFD4F2491FC01E55DFD4FC5
:1025E0008491882361F190E0880F991FFC01E750E6
:1025F000FE4FC591D491FC01E95EFD4FA591B491C8
:10260000611109C09FB7F89488812095822388833F
:10261000EC912E230BC0623061F49FB7F89438819F
:10262000822F809583238883EC912E2B2C939FBF40
:1026300006C08FB7F894E8812E2B28838FBFDF91D7
:10264000CF9108953FB7F8948091710690917206EA
:10265000A0917306B091740626B5A89B05C02F3FC4
:1026600019F00196A11DB11D3FBFBA2FA92F982FB8
:102670008827820F911DA11DB11DBC01CD0142E033
:10268000660F771F881F991F4A95D1F708952FB7B6
:10269000F89460916D0670916E0680916F0690912E
:1026A00070062FBF08951F920F920FB60F9211243C
:1026B0002F933F938F939F93AF93BF9380916D061A
:1026C00090916E06A0916F06B091700630916C06E5
:1026D00023E0230F2D3720F40196A11DB11D05C065
:1026E00026E8230F0296A11DB11D20936C0680934E
:1026F0006D0690936E06A0936F06B093700680915E
:10270000710690917206A0917306B09174060196BD
:10271000A11DB11D8093710690937206A09373065C
:10272000B0937406BF91AF919F918F913F912F917C
:102730000F900FBE0F901F90189580916706882309
:10274000A9F1409154015091550160915601709149
:1027500057012EE233E080912E0590912F050E94C3
:102760008609811102C080E0089540916806509169
:10277000690660916A0670916B0641155105610505
:10278000710591F02EE233E080912E0590912F0596
:102790000E948609882339F3109268061092690610
:1027A00010926A0610926B061092670681E00895F7
:1027B0008F929F92AF92BF92EF92FF920F931F93CF
:1027C000CF934B015C01C42F80915401909155012E
:1027D000A0915601B091570188159905AA05BB052E
:1027E00001F10E949D13811102C080E020C08EE2A1
:1027F000E82E83E0F82E00E012E020E030E0B501A2
:10280000A40180912E0590912F050E94F505882343
:1028100061F38092540190925501A0925601B092BA
:10282000570180916706C82BC093670681E0CF915E
:102830001F910F91FF90EF90BF90AF909F908F905E
:1028400008954F925F926F927F928F929F92AF9274
:10285000BF92CF92DF92EF92FF920F931F93CF938D
:10286000DF93EC016A017B012801390142305105F7
:102870006105710510F480E073C089859A85AB8588
:10288000BC850196A11DB11D84179507A607B70742
:1028900090F38B889C88AD88BE888F89803129F41D
:1028A000BB27AF2D9E2D8D2D09C0DB01CA0147E04E
:1028B000B695A795979587954A95D1F7880E991E55
:1028C000AA1EBB1E8091540190915501A091560102
:1028D000B091570188169906AA06BB0679F48F892C
:1028E0008031A1F4DD24EE24FF24C601880F991F56
:1028F000FC01E25DFC4F5182408219C040E0C501FD
:10290000B4010E94D8138111EACFB5CFE894C7F87B
:10291000DD24EE24FF24C601880F991F880F991F1C
:10292000FC01E25DFC4F40825182628273828091A1
:1029300067068160809367068A89823080F08D8186
:102940009E81AF81B885880E991EAA1EBB1E8092FB
:10295000680690926906A0926A06B0926B0681E0C2
:10296000DF91CF911F910F91FF90EF90DF90CF906B
:10297000BF90AF909F908F907F906F905F904F909F
:1029800008958F929F92AF92BF92CF92DF92EF9273
:10299000FF920F931F93CF93DF93FC018185928564
:1029A000A385B4850196A11DB11D84179507A607BF
:1029B000B70710F480E05CC083899489A589B68943
:1029C000C789C03129F4852E962EA72EBB2409C0B5
:1029D0004A015B01C7E0B694A79497948794CA957F
:1029E000D1F7E9016A017B018F01BC01CD01680DBE
:1029F000791D8A1D9B1D8090540190905501A090D7
:102A00005601B0905701681579058A059B0599F420
:102A1000F80187898031A9F4B701A60155276627F7
:102A20007727440F551FFA01E25DFC4F80819181A9
:102A3000A0E0B0E018C040E00E94D8138111E8CFB8
:102A4000B9CFB701A6014F77552766277727440FDF
:102A5000551F440F551FFA01E25DFC4F80819181A3
:102A6000A281B381BF7088839983AA83BB8381E0ED
:102A7000DF91CF911F910F91FF90EF90DF90CF905A
:102A8000BF90AF909F908F9008954F925F926F92FA
:102A90007F92AF92BF92CF92DF92EF92FF920F930D
:102AA0001F93CF93DF9300D000D0CDB7DEB78C015A
:102AB00049835A836B837C835901C12CD12C7601C5
:102AC000412C82E0582E612C712C49815A816B81F6
:102AD0007C819E012F5F3F4FC8010E94C114882353
:102AE00051F1D301C201F801058404C0880F991F78
:102AF000AA1FBB1F0A94D2F7C80ED91EEA1EFB1EDE
:102B000049815A816B817C818789803129F088EFE6
:102B10009FEFAFEFBFE004C088EF9FEFA0E0B0E011
:102B2000481759076A077B0780F2F501C082D182F6
:102B3000E282F38281E00F900F900F900F90DF916F
:102B4000CF911F910F91FF90EF90DF90CF90BF90AA
:102B5000AF907F906F905F904F90089580913B066B
:102B600090913C06009711F00E94112C809139063B
:102B700087FD03C060E00E94E61282E991E0909335
:102B800049068093480688E496E00C949D0CCF9308
:102B9000DF93CDB7DEB7C259D1090FB6F894DEBFC7
:102BA0000FBECDBF789484B5826084BD84B581604A
:102BB00084BD85B5826085BD85B5816085BD809108
:102BC0006E00816080936E00109281008091810080
:102BD0008260809381008091810081608093810078
:102BE000809180008160809380008091B10084603A
:102BF0008093B1008091B00081608093B00080919B
:102C00007A00846080937A0080917A008260809359
:102C10007A0080917A00816080937A0080917A00B6
:102C2000806880937A001092C100E0914005F09195
:102C3000410582E08083E0913C05F0913D051082E2
:102C4000E0913E05F0913F0580E1808310924805B8
:102C5000E0914405F091450586E08083E0914205CE
:102C6000F0914305808180618083E0914205F0917D
:102C70004305808188608083E0914205F09143059F
:102C8000808180688083E0914205F09143058081D6
:102C90008F7D808360E08EE00E94E612809139068D
:102CA00087FD08C061E00E94E61260E0809139066D
:102CB0000E94B61281E0809334064091370650910D
:102CC000380660E070E080913B0690913C060E94DF
:102CD000BB2C1092DA051092D8051092D5051092EF
:102CE000D4058AE08093D3050E9447138B0161E0ED
:102CF0008091D3050E94E61261E08091D3050E9485
:102D0000B612FFB6F89480919E02811127C0E5E3C8
:102D1000F2E08491E9E4F2E09491E82FF0E0EE0F24
:102D2000FF1FE750FE4FA591B491EC91E92321F4E8
:102D300061E08AE00E94B61261E08AE00E94E61239
:102D40008CB580618CBD8CB580648CBD61E08DE0FC
:102D50000E94E61261E08BE00E94E61280919E02E2
:102D60008F5F80939E02FFBE82E58093CD05109217
:102D7000CE058091CD059091CE050E947A056AE03E
:102D8000F62E8FEF0E943B05FA94F110FACF8FECEC
:102D900095E00E947D0520E030E0A90160E08FEC25
:102DA00095E00E949305F82E8093D90581E0F816EE
:102DB00049F00E944713601B710B613D774058F347
:102DC00081E056C02AEA31E040E050E068E08FEC54
:102DD00095E00E94930582FF03C0F092DA0510C0CF
:102DE00054E0F52E0E9442058093D905FA94F11023
:102DF000F9CF8A3A11F082E03BC082E08093DA0595
:102E00008091DA05823021F0C12CD12C760105C0E9
:102E1000C12CD12CE12C40E4F42E20E030E0A901BB
:102E200067E38FEC95E00E949305A701960169E2A4
:102E30008FEC95E00E9493058093D905882349F093
:102E40000E944713601B710B613D774030F388E0AF
:102E50000FC08091DA05823001F520E030E0A90151
:102E60006AE38FEC95E00E949305882341F086E0A9
:102E70008093D4058FEC95E00E9430058DC00E94B0
:102E80004205807C803C19F483E08093DA050E943F
:102E900042050E9442050E9442058FEC95E00E9487
:102EA000300580E58093CD051092CE0581E00E942B
:102EB000CB0E882329F08091FE05882341F06CC059
:102EC00080E00E94CB0E882309F466C0F4CF809185
:102ED000F205803109F582E08093FE05109210061C
:102EE0001092110610921206109213068091F305AB
:102EF0009091F405A0E0B0E035E0880F991FAA1F7B
:102F0000BB1F3A95D1F780930C0690930D06A093C2
:102F10000E06B0930F061DC08032F1F583E080935A
:102F2000FE054091F5055091F6056091F705709109
:102F3000F8054093100650931106609312067093A3
:102F400013062CE036E08BED95E00E9445158823B2
:102F500019F18BED95E0909315068093140681E0AE
:102F60008093FD051092FF05109200061092010655
:102F700010920206109203061092040610920506A3
:102F80001092060610920706109208061092090683
:102F900010920A0610920B06412C512C320124E7A4
:102FA000822E21E0922E5E01ABE3AA0EB11CFE013F
:102FB00031966F018DE090E00E947C2B8C017F9216
:102FC0006F925F924F92AEEBB1E0BF93AF931F93BE
:102FD0008F930E94DC2C1EAE1DAE9CAE8BAE219654
:102FE0001FAE219719A218A29F8E8E8E1BA20FB61C
:102FF000F894DEBF0FBECDBFEC961FAEEC97E49603
:103000001FAEE497E896AFAEE8973B2C99EFE92E18
:1030100095E0F92EEC962FADEC97E4963FADE49752
:10302000F801E20FF31F80818F3211F42F5F3F4FC1
:10303000DE01A85ABF4F80E090E0F801E20FF31FD5
:1030400040814F3249F0442339F001962F5F3F4FC2
:103050004D938C30910589F7E8E5F0E0EC0FFD1F0A
:10306000E80FF91F1082F801E20FF31F80818F3201
:1030700011F42F5F3F4FEC962FAFEC97E4963FAFE4
:10308000E497F801E20FF31F20801C821B829A82D2
:1030900089821E8221E0AE01485A5F4FB701C60106
:1030A0000E949307882331F0C6010E941E0521105B
:1030B0000AC02BC0B9EFEB16B5E0FB0681F1C701E2
:1030C0000E941E052CC021E0AE01485A5F4FB70197
:1030D000E8968FADE897932D0E949307282EE9EF8D
:1030E000EE16E5E0FE0609F4A0C7C7010E941E0522
:1030F0002220A9F09E2D8F2DE896EFACE897F32CB7
:10310000E8969FAFE897382E85CFF9EFEF16F5E0F8
:10311000FF0609F408C1C7010E941E0504C1480149
:103120003E012EE1620E711C69EF75E0C3010E9441
:103130009D0B1C821B8284E791E09A8389831E8207
:103140003C2C2D2C23016FE270E0C4010E94C22CA4
:10315000009709F445C0D4012C912F3249F4BFEFF8
:103160008B1A9B0AC101342C252C492E582E32C0B3
:1031700088198D3008F08CE0E82EF12CA701B401FD
:10318000CE01885A9F4F0E94CD2CE8E5F0E0EC0F6D
:10319000FD1FEE0DFF1D1082832D922D0E941E0536
:1031A00021E0AE01485A5F4FB201832D922D0E945B
:1031B000930781110AC01EAE1DAE84E791E09CAF5B
:1031C0008BAF21961FAE219718C08E0C9F1CC20199
:1031D0000E941E05942D852D432C522C1C01B3CF2B
:1031E000F401E01BF10BC158DF4FF983E883CF579F
:1031F000D040B201C5010E949D0BC158DF4F8881AC
:103200009981CF57D040080F191FD8018C91811197
:1032100007C0B501C6010E949D0B4AEC51E044C0B5
:1032200019A218A284E791E09F8F8E8F1BA221968E
:103230008FAD2197811116C06C961FAE1EAE6C9794
:1032400088EE93E0A0E0B0E0A0968CAF9DAFAEAF6B
:10325000BFAFA097E3961FAE1EAEE397A5961FAE35
:10326000A59728C0825023E1A801823040F469EF7D
:1032700075E0C3010E94930781110AC0DDCFB5013B
:10328000C3010E9493078823B9F2C5010E941E055D
:1032900049A95AA96BA97CA9C3010E948003B30163
:1032A000C6010E949D0BA801B601CE01885A9F4F0E
:1032B0000E94EE0B6C968EAD9FAD6C9790931B06A3
:1032C00080931A06A0968CAD9DADAEADBFADA09714
:1032D00080931C0690931D06A0931E06B0931F06B4
:1032E000A4968CAD9DADAEADBFADA49780932006E6
:1032F00090932106A0932206B09323068DE0E8E583
:10330000F0E0EC0FFD1F3C96A4E2B6E001900D92B8
:103310008A95E1F7E3968EAD9FADE39790933206E1
:103320008093310612C0BFEF4B1A5B0A6B0A7B0A0F
:10333000E4E64E1651046104710409F03BCE6DE2DF
:1033400072E080E395E00E943311109263061092C0
:103350006206109261061092600610925F0610924B
:103360005E068DE991E090936506809364069091E6
:103370005406963108F057C02DEB30E030935F06CD
:1033800020935E062BE931E03093610620936006BE
:103390002CE231E0309363062093620620916800AE
:1033A000983050F031E09E3008F430E081E001C008
:1033B000880F3A95EAF701C084E0822B8093680079
:1033C000983038F09E3040F0963148F020E030E000
:1033D00008C02DE630E005C02BE630E002C02CE648
:1033E00030E030935C0620935B06983030F481E047
:1033F00001C0880F9A95EAF70EC0292F30E09E3061
:1034000018F42850310902C02E50310981E001C062
:10341000880F2A95EAF780935D0680916406909163
:1034200065060197F1F78091620690916306892BFA
:1034300021F180919C0290919D02F6E088349F07D3
:10344000E1F0009711F00E949D0C809166068E7F3E
:103450008093660610929B0210929A0288E496E08E
:1034600090939D0280939C02E0915B06F0915C0634
:10347000908180915D06892B80836CEC71E088E4FB
:1034800096E00E9433116DED71E088E496E00E94B1
:10349000331166EF71E088E496E00E9433118AE907
:1034A00091ECA4EEB1E48093290390932A03A093B6
:1034B0002B03B0932C038FED9BE9A2EAB2EC80932F
:1034C000250390932603A0932703B093280362E07B
:1034D00082E00E94E61280E6E5ECF2E0DF011D9258
:1034E0008A95E9F710E088E496E00E948D01019644
:1034F000D1F388E496E00E941202E12FF0E0EB5352
:10350000FD4F8083112329F0843219F48093C50282
:1035100010E08091C502843231F781E0810FE12F04
:10352000F0E0EB53FD4F90819A3011F0182FDBCF74
:1035300090E0FC01ED53FD4F10828C010550110904
:10354000F801EB53FD4F20812A3261F640E150E053
:1035500060E070E08F539D4F0E94E32221E0822FB4
:1035600090E0801791073CF4FC01EB53FD4F808104
:1035700068272F5FF4CF6111B5CFE5E0F2E08491C9
:10358000E1E4F2E01491EDE2F2E00491002371F045
:1035900081110E948D12E02FF0E0EE0FFF1FEF5D12
:1035A000FD4FA591B491EC911E2359F56DE372E0A6
:1035B00080E395E00E94331180912D038F5F80930B
:1035C0002D03843010F010922D0380912D03811172
:1035D000F2C48FEF9EEBA4EEB1E4809329039093A5
:1035E0002A03A0932B03B0932C0381E49BE9A2EA66
:1035F000B2EC8093250390932603A0932703B09306
:1036000028038091C802823509F052C268E272E054
:1036100085EC92E00E9419249093A8028093A7025F
:1036200009EA12E068E272E080E090E00E9419246A
:10363000D8018D939D938D01B2E0053C1B0791F756
:103640006091AD027091AE028091AF029091B00294
:103650000E94570EEB966CAF7DAF8EAF9FAFEB978E
:103660006091B1027091B2028091B3029091B40264
:103670000E94570EEF966CAF7DAF8EAF9FAFEF9766
:10368000E091B702F091B80280818E8F81818F8F97
:10369000828188A32BED3FE049E450E4EB966CADCA
:1036A0007DAD8EAD9FADEB970E94AB2420E030E066
:1036B00044E353E40E9458292B013C012BED3FE0E9
:1036C00049E450E4EF966CAD7DAD8EAD9FADEF97C4
:1036D0000E94AB2420E030E044E353E40E945829E8
:1036E000CD57DF4F688379838A839B83C358D0404B
:1036F0002BED3FE049E450E46091290370912A03E7
:1037000080912B0390912C030E94AB2420E030E0A9
:1037100044E353E40E9458294B015C010E94532961
:10372000E7966CAF7DAF8EAF9FAFE7972BED3FE095
:1037300049E450E4609125037091260380912703AA
:10374000909128030E94AB2420E030E044E353E44E
:103750000E945829CD57DF4F288139814A815B81EA
:10376000C358D0400E9474286B017C010E94D52A66
:10377000C957DF4F688379838A839B83C758D040BA
:10378000C301B2010E945329C158DF4F6883798376
:103790008A839B83CF57D040C501B4010E94D52AAC
:1037A0009B01AC01C301B201C157DF4F2883CF5841
:1037B000D040C057DF4F3883C059D040CF56DF4F7D
:1037C0004883C159D040CE56DF4F5883C259D040AC
:1037D0000E94D52AC557DF4F688379838A839B83EC
:1037E000CB58D040C701B6010E9453294B015C0160
:1037F000C157DF4F2881CF58D040C057DF4F3881A5
:10380000C059D040CF56DF4F4881C159D040CE5625
:10381000DF4F5881C259D040C158DF4F688179814C
:103820008A819B81CF57D0400E94AB246B017C01E1
:10383000E7962CAD3DAD4EAD5FADE797C557DF4F79
:10384000688179818A819B81CB58D0400E94AB24CA
:10385000A50194010E94AB249B01AC01C701B601F4
:103860000E9474286B017C01C957DF4F2881398180
:103870004A815B81C758D040E7966CAD7DAD8EAD77
:103880009FADE7970E94AB24A70196010E94F42800
:1038900020E030E044E353E40E94AB242BED3FE012
:1038A00049E450E40E94582920E030E044EB53E41E
:1038B0000E94752820E030E044EB53E40E940B2A7C
:1038C000E7966CAF7DAF8EAF9FAFE797CE014E9678
:1038D0000E94F4239B01AC01E7966CAD7DAD8EADEB
:1038E0009FADE7970E94742820E030E044EB53E45A
:1038F0000E94752820E030E044EB53E40E940B2A3C
:103900006093A3027093A4028093A5029093A602F1
:103910002BED3FE049E450E46091290370912A03C4
:1039200080912B0390912C030E94AB2420E030E087
:1039300044E353E40E9458296B017C01A3019201E6
:103940000E94742820E030E040E05FE30E94AB2456
:103950000E94D52A4B015C01C701B6010E94532980
:103960002B013C012BED3FE049E450E4609125033D
:103970007091260380912703909128030E94AB2425
:1039800020E030E044E353E40E945829CD57DF4F54
:10399000288139814A815B81C358D0400E947428B4
:1039A00020E030E040E05FE30E94AB240E94D52A93
:1039B0006B017C01A5019401C501B4010E94AB24F7
:1039C0004B015C01A3019201C158DF4F68817981ED
:1039D0008A819B81CF57D0400E94AB242B013C01B0
:1039E000A7019601C701B6010E94AB249B01AC015F
:1039F000C301B2010E94AB249B01AC01C501B4011B
:103A00000E9475286B017C019B01AC0160E070E0B5
:103A100080E89FE30E9474280E94E32A9B01AC0186
:103A2000C701B601C157DF4F2883CF58D040C057D8
:103A3000DF4F3883C059D040CF56DF4F4883C1593C
:103A4000D040CE56DF4F5883C259D0400E94E32A5F
:103A5000C157DF4F2881CF58D040C057DF4F388142
:103A6000C059D040CF56DF4F4881C159D040CE56C3
:103A7000DF4F5881C259D0400E94F4289B01AC010D
:103A80000E94752820E33BE74FE95BE40E94AB24EA
:103A900060939F027093A0028093A1029093A20270
:103AA0008E010F5F1F4F22E042E00E94662112C08C
:103AB000E7961CAE1DAE1EAE1FAEE797EF961CAE8E
:103AC0001DAE1EAE1FAEEF97EB961CAE1DAE1EAE2A
:103AD0001FAEEB9746E0EF966CAD7DAD8EAD9FAD22
:103AE000EF970E945D108CE20E94FA0F46E0EB9681
:103AF0006CAD7DAD8EAD9FADEB970E945D108CE2FD
:103B00000E94FA0F42E0E7966CAD7DAD8EAD9FADA1
:103B1000E7970E945D108EE20E94FA0F60919F026B
:103B20007091A0028091A1029091A20242E00E94B5
:103B30005D106AE272E088E196E00E94051088E17B
:103B400096E00E94750210912D0340913706509126
:103B5000380660E070E080913B0690913C060E9440
:103B6000BB2C111107C020E030E04FEF50E061E0C6
:103B700070E01AC0113039F420E030E04FEF50E02F
:103B800062E070E011C0123039F420E030E04FEF15
:103B900050E063E070E008C0133051F420E030E002
:103BA0004FEF50E064E070E08CE491E00E94B30CD1
:103BB000C0909F02D090A002E090A102F090A202DB
:103BC00020E030E44CE155E4C701B6010E944524F1
:103BD00087FF11C020E030E04AEF54E4C701B6018E
:103BE0000E94C82A18163CF420E030E04FEF50E065
:103BF00061E070E0E8C020E030E04AEF54E4C70143
:103C0000B6010E94452487FF11C020E030E048EC57
:103C100054E4C701B6010E94C82A18163CF420E0FB
:103C200030E04FEF50E062E070E0CDC020E030E0E7
:103C300048EC54E4C701B6010E94452487FF11C037
:103C400020E030E046E954E4C701B6010E94C82AEA
:103C500018163CF420E030E04FEF50E063E070E0F5
:103C6000B2C020E030E046E954E4C701B6010E944A
:103C7000452487FF11C020E030E048E454E4C70148
:103C8000B6010E94C82A18163CF420E03AEF4FEF24
:103C900050E064E070E097C020E030E048E454E495
:103CA000C701B6010E94452487FF11C020E030E023
:103CB00048EC53E4C701B6010E94C82A18163CF428
:103CC00020E03AEF4FEF50E065E070E07CC020E08C
:103CD00030E048EC53E4C701B6010E94452487FF59
:103CE00011C020E030E048E453E4C701B6010E946F
:103CF000C82A18163CF420E03AEF4FEF50E066E097
:103D000070E061C020E030E048E453E4C701B60150
:103D10000E94452487FF11C020E030E048EC52E4C7
:103D2000C701B6010E94C82A18163CF420E03FEFF4
:103D300040E050E067E070E046C020E030E048EC52
:103D400052E4C701B6010E94452487FF11C020E05C
:103D500030E048E452E4C701B6010E94C82A1816B0
:103D60003CF420E03FEF40E050E068E070E02BC022
:103D700020E030E048E452E4C701B6010E94452447
:103D800087FF11C020E030E040E251E4C701B601F6
:103D90000E94C82A18163CF420E03FEF40E050E0B3
:103DA00069E070E010C020E030E040E251E4C7017B
:103DB000B6010E94452487FF0AC020E03FEF40E0A3
:103DC00050E06AE070E088E391E00E94B30CC0909C
:103DD000A302D090A402E090A502F090A60220E0F9
:103DE00030E044EB51E4C701B6010E94452487FD51
:103DF0000AC020E030EC48EA53E4C701B6010E9453
:103E0000C82A18164CF42FEF30E040E050E064E090
:103E100070E080E391E0CAC020E030E044EB51E480
:103E2000C701B6010E94C82A18169CF420E030E0B1
:103E300047E852E4C701B6010E94452487FF09C044
:103E40002FEF30E040E050E063E070E08AE291E084
:103E5000ADC020E030E047E852E4C701B6010E945F
:103E6000C82A18169CF420E030E041EE52E4C70165
:103E7000B6010E94452487FF09C02FEF30E040E0E3
:103E800050E064E070E082E291E090C020E030E039
:103E900041EE52E4C701B6010E94C82A18169CF4EC
:103EA00020E030E84DE153E4C701B6010E9445240B
:103EB00087FF09C02FEF30E040E050E063E070E0A2
:103EC0008CE191E073C020E030E84DE153E4C7019C
:103ED000B6010E94C82A18169CF420E030E84AE493
:103EE00053E4C701B6010E94452487FF09C02FEFA4
:103EF00030E040E050E064E070E084E191E056C0E2
:103F000020E030E84AE453E4C701B6010E94C82A21
:103F100018169CF420E030E847E753E4C701B601E7
:103F20000E94452487FF09C02FEF30E040E050E0B9
:103F300063E070E08EE091E039C020E030E847E7D0
:103F400053E4C701B6010E94C82A18169CF420E069
:103F500030E442E953E4C701B6010E94452487FFDB
:103F600009C02FEF30E040E050E064E070E086E010
:103F700091E01CC020E030E442E953E4C701B601FF
:103F80000E94C82A1816A4F420E030EC48EA53E452
:103F9000C701B6010E94452487FF0AC02FEF30E019
:103FA00040E050E063E070E080E091E00E94B30CFC
:103FB0000E94181290CA813089F480E09AEBA4EE36
:103FC000B1E48093290390932A03A0932B03B09329
:103FD0002C038AE99BE9A2EAB2EC0BCB823089F48C
:103FE00083E795ECA4EEB1E48093290390932A0330
:103FF000A0932B03B0932C0384E09AE9A2EAB2ECDD
:10400000F8CA833009F0FDCA83E194ECA4EEB1E470
:104010008093290390932A03A0932B03B0932C033E
:1040200083E49CE9A2EAB2ECE4CA882309F477C8E5
:10403000DE015E967D015EC8109233051092320556
:1040400088EE93E0A0E0B0E08093340590933505CE
:10405000A0933605B093370522E631E03093310561
:104060002093300525EC30E030933D0520933C054E
:1040700024EC30E030933F0520933E0520EC30E007
:10408000309341052093400521EC30E03093430507
:104090002093420522EC30E03093450520934405FF
:1040A00026EC30E0309347052093460510924905F1
:1040B00010924A0510924B0510924C0520E5209372
:1040C000CD051092CE051092D4051092D505109210
:1040D000D8051092DA0542E050E060E070E04093CD
:1040E000DB055093DC056093DD057093DE051092CF
:1040F000F2051092FC051092FB0524E731E03093A5
:10410000FA052093F9051092FE0510924B061092C5
:104110004A0680934C0690934D06A0934E06B093AA
:104120004F0682E991E090934906809348061092E9
:104130005F0610925E061092610610926006109261
:1041400063061092620610926506109264066091F2
:1041500066066E7F6D7F609366066695617081E08E
:10416000682787E00E94B61261E087E00E94E612AD
:10417000E6E4F2E0E491E0935806E2E3F2E0E49151
:10418000F0E0EE0FFF1FE95EFD4F85919491909353
:104190005A068093590660E088E00E94E6128091FA
:1041A000660681FD04C061E088E00E94B61288E0E6
:1041B00080935406E7E4F2E0E491E0935506E3E3EC
:1041C000F2E0E491F0E0EE0FFF1FEF5DFD4F85910F
:1041D000949190935706809356061092340610924D
:1041E0003A0610924106109242061092430610922F
:1041F000440681E08093400680933D0610923E067F
:1042000092E090933F068093330688E790E0909386
:104210003806809337060E947C2B90933C0680934F
:104220003B06009761F028E7FC0111922A95E9F717
:1042300088E290E0909336068093350608C010928D
:10424000380610923706109236061092350686E030
:104250008093390680913406882341F061E086E03E
:104260000E94E61260E086E00E94B612E1E3F2E00E
:10427000E491F0E0EE0FFF1FE95EFD4F8591949110
:104280009093460680934506E5E4F2E0E491E093DE
:10429000470610921B0610921A0688EE93E0A0E0E3
:1042A000B0E080931C0690931D06A0931E06B09369
:1042B0001F0680E891E090931906809318061092EB
:1042C000320610923106109224060895EF920F9351
:1042D0001F93CF93DF93E80147FD02C034E001C094
:1042E00034E1E42F440FFF0BF7FF03C0F195E19594
:1042F000F109E32E022F2E2FAE010E941825CE01C8
:10430000DF91CF911F910F91EF900895A0E0B0E061
:10431000ECE8F1E20C943228EC017B0161157105A7
:1043200019F0DB018D939C938E010F5F1F4F7880F6
:10433000872D90E00E94F823892B11F0E801F4CF3B
:10434000BDE27B1205C00F5F1F4F7980C1E008C03E
:10435000EBE27E1204C08E010E5F1F4F7980C0E039
:104360006801F1E0CF1AD10843E050E06CEB70E057
:10437000C6010E940124892BF1F4680122E0C20EDB
:10438000D11C45E050E067EB70E0C6010E940124BB
:10439000892B21F4680187E0C80ED11CE114F104D7
:1043A00019F0D701CD92DC92C111FFC060E070E03E
:1043B00080E89FE703C143E050E064EB70E0C60192
:1043C0000E940124892B51F4E114F10409F4F2C094
:1043D0000E5F1F4FF70111830083ECC0680160E09E
:1043E00070E0CB0100E010E0F601D0EDD70DDA303F
:1043F00058F52C2F2260622E2C2F2870C2FF05C08A
:10440000211128C00F5F1F4F25C0222311F001503A
:104410001109A5E0B0E09B01AC010E9423284B01EB
:104420005C01880C991CAA1CBB1CC501B4016D0F52
:10443000711D811D911D6839A9E97A078A07A9E1D3
:104440009A0740F0C66005C0DE3F51F4C3FD44C08A
:10445000C8606C2EBFEFCB1ADB0A7080C62DC4CFAC
:104460002D2F2F7D2531C1F540814D3211F4C061D2
:1044700006C04B3221F0319621E030E006C0329682
:10448000D60111964C9122E030E0A0EDA40FAA30A5
:1044900018F0E21BF30B20C040E050E04038BCE0D5
:1044A0005B075CF49A01220F331F220F331F420F68
:1044B000531F440F551F4A0F511D3196DF011197AD
:1044C0002C91A0EDA20FAA3048F3C4FF03C0519570
:1044D00041955109040F151FC1FF07C0E114F104F4
:1044E00021F03197D701ED93FC930E944A24C370C9
:1044F000C33019F06B017C0106C06B017C01F7FA37
:10450000F094F7F8F09420E030E0A901C701B6017B
:104510000E944524882309F445C017FF06C0119561
:1045200001951109C3EDD0E002C0CBEED0E05E01F1
:10453000B8E1AB1AB1084601BE2DAF2D90E2E92ECD
:10454000F12C0E151F0584F0FE0125913591459142
:104550005491B4018B2F9A2F0E94AB244B01B82F9A
:10456000A92F0E191F09EDCF2497F594E794CA15CA
:10457000DB0539F76401EB2EFA2E8E2D880F8F2D77
:10458000881F8F3F49F020E030E0A901C701B60144
:104590000E944524811106C082E290E09093780643
:1045A00080937706C701B60109C060E070E080E83B
:1045B0009FEF04C060E070E080EC9FE7CDB7DEB70E
:1045C000EEE00C944E28A0E0B0E0E9EEF2E20C94AC
:1045D0002E285C016B017A016115710519F0FB0150
:1045E00091838083E114F10429F0C7010297839736
:1045F00008F0F1C0E5012196F5011081812F90E0CE
:104600000E94F823892B11F05E01F4CF1D3229F4AA
:104610002196F501118101E007C01B3221F4E5016B
:104620002296F501118100E0E114F10459F1F0E165
:10463000EF16F10461F41033E1F488818F7D883541
:1046400069F519812296026070E1E72EF12C88E06D
:10465000E816F10439F12CF4F2E0EF16F104C9F197
:104660002AC08AE0E816F10479F0E0E1EE16F104E0
:1046700011F550E1E52EF12C812C912CA12C68E054
:10468000B62E2CC01033C9F23AE0E32EF12C4CECDC
:10469000842E982CA82C4CE0B42E20C010E3E114FA
:1046A000F104A9F698E0E92EF12C812C912CA12C93
:1046B00020E1B22E13C060E070E080E090E8970146
:1046C0000F2C000C440B550B0E94E22749015A01A4
:1046D00005C0812C912CA12C80E4B82E60E020E054
:1046E00030E0A90127010F2C000C660877081E0195
:1046F000E0EDE10FEA3060F08FEB810F8A3110F4CA
:10470000E9EC05C08FE9810F8A3128F5E9EAE10F6C
:104710008E2F90E08E159F05F4F467FD18C0821669
:104720009306A406B50690F0C301B2010E94D227F9
:104730009B01AC012E0F311D411D511D2130310552
:104740004105F0E85F0710F461E001C06FEF2196CA
:10475000F1011081CCCF802F8170C114D10471F090
:10476000662329F02197F601D183C08307C001FF9A
:1047700019C02297F601D183C08314C067FF12C00D
:10478000811105C02FEF3FEF4FEF5FE704C020E03E
:1047900030E040E050E882E290E090937806809329
:1047A000770616C0882341F05095409530952195A5
:1047B0003F4F4F4F5F4F0CC057FF0AC082E290E05F
:1047C00090937806809377062FEF3FEF4FEF5FE7E8
:1047D000B901CA0104C060E070E080E090E0CDB7AC
:1047E000DEB7E2E10C944A28662777270C948621ED
:1047F00091110C947E27803219F089508550C8F7AA
:104800000895FB01DC014150504088F08D918134C6
:104810001CF08B350CF4805E659161341CF06B35B7
:104820000CF4605E861B611171F3990B0895881B6F
:10483000FCCF45E756E00E941E240895FA01A1919D
:10484000B081009719F41097E1F0CD01DC01CD01A2
:104850000D90002011F4C00113C0FB01219122230F
:1048600019F02015D9F7F3CFFB012191201519F488
:104870001E92119606C02223C1F70D900020A1F7C9
:10488000D001FA01A193B08308950E94872408F40F
:1048900081E00895E89409C097FB3EF490958095D7
:1048A000709561957F4F8F4F9F4F9923A9F0F92FF6
:1048B00096E9BB279395F695879577956795B79574
:1048C000F111F8CFFAF4BB0F11F460FF1BC06F5F5A
:1048D0007F4F8F4F9F4F16C0882311F096E911C06C
:1048E000772321F09EE8872F762F05C0662371F08D
:1048F00096E8862F70E060E02AF09A95660F771FA1
:10490000881FDAF7880F9695879597F90895990F7C
:104910000008550FAA0BE0E8FEEF16161706E80789
:10492000F907C0F012161306E407F50798F0621BAA
:10493000730B840B950B39F40A2661F0232B242B7F
:10494000252B21F408950A2609F4A140A6958FEF9E
:10495000811D811D08950E94BE240C9498270E94F9
:104960008A2738F00E94912720F0952311F00C94AB
:1049700081270C94872711240C94CC270E94A92707
:1049800070F3959FC1F3950F50E0551F629FF001A2
:10499000729FBB27F00DB11D639FAA27F00DB11DBB
:1049A000AA1F649F6627B00DA11D661F829F222744
:1049B000B00DA11D621F739FB00DA11D621F839FCB
:1049C000A00D611D221F749F3327A00D611D231FA1
:1049D000849F600D211D822F762F6A2F11249F57EF
:1049E00050409AF0F1F088234AF0EE0FFF1FBB1FF2
:1049F000661F771F881F91505040A9F79E3F5105B1
:104A000080F00C9481270C94CC275F3FE4F3983E10
:104A1000D4F3869577956795B795F795E7959F5F5A
:104A2000C1F7FE2B880F911D9695879597F90895EC
:104A30004F925F926F927F929F92AF92BF92CF926E
:104A4000DF92EF92FF920F931F93CF93DF93CDB737
:104A5000DEB729970FB6F894DEBF0FBECDBF6A014F
:104A6000122FB02E2BE3201720F0FF24F394F00E2A
:104A700002C0BCE3FB2E0F2D27E0AE014F5F5F4F5E
:104A80000E94A626AC018981982F9970913031F04F
:104A9000E1FC06C0E0FE06C090E205C09DE203C056
:104AA0009BE201C090E0EE2DE07183FF3CC09111CC
:104AB00002C083E001C084E0811718F4212F281B75
:104AC00001C020E0E1110BC0F601822F30E2882303
:104AD00019F031938150FBCFC20ED11C20E09923F5
:104AE00029F0D6019C93F60131966F01C601039619
:104AF000E2FE0AC03EE4D6013C9341E411964C9399
:104B0000119712963C9306C03EE6F601308341E6CB
:104B100041833283FC01322F40E2332309F442C047
:104B200041933150FACF82FF44C0911102C083E01B
:104B300001C084E0811718F4212F281B01C020E058
:104B4000E1110BC0F601822F30E2882319F0319376
:104B50008150FBCFC20ED11C20E0992329F0D60151
:104B60009C93F60131966F01C6010396E2FE0BC0DD
:104B700039E4D6013C933EE411963C93119736E418
:104B800012963C9307C039E6F60130833EE6318346
:104B900036E63283FC01322F40E2332319F0419391
:104BA0003150FBCFFC01E20FF11D10828EEF9FEF21
:104BB000B7C0F1E0911101C0F0E06F2F70E0141662
:104BC000150624F49A012F5F3F4F02C021E030E028
:104BD000260F371FBB2029F06B2D70E06F5F7F4FD2
:104BE00002C060E070E0260F371F612F70E02617CB
:104BF00037071CF4121B212F01C020E03E2D387115
:104C000059F4D601322F60E2332319F06D933150FD
:104C1000FBCFC20ED11C20E0FF2331F0D6019C93C4
:104C2000B6016F5F7F4F6B01E1110BC0F601922F50
:104C300030E3992319F031939150FBCFC20ED11C70
:104C400020E09F2D940F3A81782F7071A72E84FF5A
:104C500003C0313309F49150191624F4993018F037
:104C600098E001C091E0E42F852F57FF02C0E0E0FB
:104C700080E06E2F782FE0E0F0E0AEE29A2E3A016D
:104C8000691A71082A01461A570A0B2D10E011956E
:104C9000019511096F3F8FEF780729F4D6019C9297
:104CA000C60101966C014617570784F06616770611
:104CB0006CF47F01E40CF51CA1E0B0E0AC0FBD1F6B
:104CC000EA0EFB1ED7011196BC9002C090E3B92EEC
:104CD000615071093196C60101967C016017710718
:104CE00024F0D601BC926C01D5CF6417750741F44E
:104CF000363320F4353321F4A11002C081E3B82EFD
:104D0000F601B082F701822F90E2882319F0919387
:104D10008150FBCFF701E20FF11D108280E090E09F
:104D200029960FB6F894DEBF0FBECDBFDF91CF91AD
:104D30001F910F91FF90EF90DF90CF90BF90AF90B9
:104D40009F907F906F905F904F900895283008F06B
:104D500027E03327DA01990F311D87FD9160009616
:104D60006105710539F432602E5F3D9330E32A9579
:104D7000E1F708959F3F30F080387105610509F033
:104D80003C5F3C5F3D93913008F08068911DDF935C
:104D9000CF931F930F93FF92EF92192F987F9695C1
:104DA000E92F96959695E90FFF27E75BFE4F992728
:104DB0003327EE24FF24A701E70105900894079408
:104DC00028F4360FE71EF81E491F511D660F771F86
:104DD000881F991F0694A1F70590079428F4E70E01
:104DE000F81E491F561FC11D770F881F991F661F88
:104DF0000694A1F70590079428F4F80E491F561F52
:104E0000C71FD11D880F991F661F771F0694A1F732
:104E10000590079420F4490F561FC71FD81F990FFC
:104E2000661F771F881F0694A9F784911095177045
:104E300041F0D695C79557954795F794E7941A95FD
:104E4000C1F7EFEEF0E068941590159135916591FA
:104E5000959105907FE27395E118F10A430B560B8B
:104E6000C90BD009C0F7E10CF11E431F561FC91F23
:104E7000D01D7EF4703311F48A95E6CFE89401508A
:104E800030F0080F0AF40027021708F4202F2395AA
:104E9000022F7A3328F079E37D932A95E9F710C041
:104EA0007D932A9589F6069497956795379517957A
:104EB0001794E118F10A430B560BC90BD00998F06F
:104EC00023957E9173957A3308F070E37C932013D9
:104ED000B8F77E9170617D9330F0839571E37D9397
:104EE00070E32A95E1F71124EF90FF900F911F9145
:104EF000CF91DF91992787FD90950895992788276D
:104F0000089597F99F6780E870E060E008959FEF4B
:104F100080EC089500240A94161617061806090650
:104F2000089500240A94121613061406050608951F
:104F3000092E0394000C11F4882352F0BB0F40F4A7
:104F4000BF2B11F460FF04C06F5F7F4F8F4F9F4FE7
:104F5000089557FD9058440F551F59F05F3F71F069
:104F60004795880F97FB991F61F09F3F79F08795D0
:104F70000895121613061406551FF2CF4695F1DF59
:104F800008C0161617061806991FF1CF86957105E9
:104F9000610508940895E894BB2766277727CB011D
:104FA00097F90895DB018F939F930E942328BF9167
:104FB000AF91A29F800D911DA39F900DB29F900D68
:104FC00011240895A1E21A2EAA1BBB1BFD010DC0DE
:104FD000AA1FBB1FEE1FFF1FA217B307E407F507A9
:104FE00020F0A21BB30BE40BF50B661F771F881F85
:104FF000991F1A9469F760957095809590959B011B
:10500000AC01BD01CF010895052E97FB1EF400945D
:105010000E941B2857FD07D00E94E22707FC03D0FF
:105020004EF40C941B2850954095309521953F4F98
:105030004F4F5F4F089590958095709561957F4F84
:105040008F4F9F4F08950E946528A59F900DB49F94
:10505000900DA49F800D911D112408952F923F92D1
:105060004F925F926F927F928F929F92AF92BF9278
:10507000CF92DF92EF92FF920F931F93CF93DF9324
:10508000CDB7DEB7CA1BDB0B0FB6F894DEBF0FBE81
:10509000CDBF09942A88398848885F846E847D84CE
:1050A0008C849B84AA84B984C884DF80EE80FD80D0
:1050B0000C811B81AA81B981CE0FD11D0FB6F89446
:1050C000DEBF0FBECDBFED010895A29FB001B39F1B
:1050D000C001A39F700D811D1124911DB29F700D01
:1050E000811D1124911D08955058BB27AA270E94A5
:1050F0008C280C9498270E948A2738F00E949127C8
:1051000020F039F49F3F19F426F40C9487270EF40D
:10511000E095E7FB0C948127E92F0E94A92758F31B
:10512000BA17620773078407950720F079F4A6F58C
:105130000C94CB270EF4E0950B2EBA2FA02D0B016B
:10514000B90190010C01CA01A0011124FF27591BCC
:1051500099F0593F50F4503E68F11A16F040A22FD2
:10516000232F342F4427585FF3CF46953795279543
:10517000A795F0405395C9F77EF41F16BA0B620B42
:10518000730B840BBAF09150A1F0FF0FBB1F661F89
:10519000771F881FC2F70EC0BA0F621F731F841FCC
:1051A00048F4879577956795B795F7959E3F08F0F2
:1051B000B0CF9395880F08F09927EE0F97958795B4
:1051C00008950E948A2760F080E891E009F49EEF3C
:1051D0000E94912728F040E851E071F45EEF0CC086
:1051E0000C9487270C94CB27E92FE0780E94A927FD
:1051F00040F3092E052AB1F3261737074807590748
:1052000038F00E2E07F8E02569F0E025E0640AC0CA
:10521000EF6307F8009407FADB01B9019D01DC0197
:10522000CA01AD01EF930E946F290E9498270E9446
:1052300024295F91552339F02BED3FE049E450FDDF
:1052400049EC0C9475280895DF93DD27B92FBF77BB
:1052500040E85FE31616170648075B0718F4D92FD6
:105260000E94CD2A9F938F937F936F930E94232B4D
:10527000E8E6F0E00E94622A0E9498272F913F9171
:105280004F915F910E94BE24DD2351F09058A2EA15
:105290002AED3FE049EC5FE3D0785D270E948C283F
:1052A000DF910C9498270E948B2AE3950C94B42AE2
:1052B0000E946C290C9498270E94912758F00E9414
:1052C0008A2740F029F45F3F29F00C94812751117F
:1052D0000C94CC270C9487270E94A92768F3992364
:1052E000B1F3552391F3951B550BBB27AA276217E2
:1052F0007307840738F09F5F5F4F220F331F441FEF
:10530000AA1FA9F335D00E2E3AF0E0E832D0915022
:105310005040E695001CCAF72BD0FE2F29D0660F0F
:10532000771F881FBB1F261737074807AB07B0E852
:1053300009F0BB0B802DBF01FF2793585F4F3AF058
:105340009E3F510578F00C9481270C94CC275F3F49
:10535000E4F3983ED4F3869577956795B795F795DE
:105360009F5FC9F7880F911D9695879597F90895C6
:10537000E1E0660F771F881FBB1F62177307840762
:10538000BA0720F0621B730B840BBA0BEE1F88F771
:10539000E09508950E94D1296894B1110C94CC270E
:1053A00008950E94B12788F09F5798F0B92F992748
:1053B000B751B0F0E1F0660F771F881F991F1AF000
:1053C000BA95C9F714C0B13091F00E94CB27B1E073
:1053D00008950C94CB27672F782F8827B85F39F072
:1053E000B93FCCF3869577956795B395D9F73EF499
:1053F00090958095709561957F4F8F4F9F4F089541
:105400000E948A2720F019F00E94912750F40C94F2
:1054100087270C94CC27E92F0E94A92788F35523CE
:10542000B1F3E7FB6217730784079507A8F189F3C7
:10543000E92FFF2788232AF03197660F771F881FEF
:10544000DAF7952F5527442332F091505040220F20
:10545000331F441FD2F7BB27E91BF50B621B730BED
:10546000840BB109B1F222F4620F731F841FB11DC6
:1054700031972AF0660F771F881FBB1FEFCF91501F
:10548000504062F041F0882332F0660F771F881F8A
:1054900091505040C1F793950C94542A8695779576
:1054A00067959F5FD9F7F7CF9F3F31F0915020F478
:1054B000879577956795B795880F911D96958795F0
:1054C00097F90895DF93CF931F930F93FF92EF9275
:1054D000DF927B018C01689406C0DA2EEF010E94F6
:1054E000BE24FE01E894A5912591359145915591F1
:1054F000A6F3EF010E948C28FE019701A801DA941F
:1055000069F7DF90EF90FF900F911F91CF91DF919E
:1055100008950C9487270E94B127D8F3E894E0E01F
:10552000BB279F57F0F02AED3FE049EC06C0EE0F95
:10553000BB0F661F771F881F28F0B23A62077307F8
:10554000840728F0B25A620B730B840BE3959A958B
:1055500072F7803830F49A95BB0F661F771F881F4B
:10556000D2F790480C94562AEF93E0FF07C0A2EAC6
:105570002AED3FE049EC5FEB0E948C280E949827BF
:105580000F90039401FC9058E5E9F0E00C94332B64
:105590000E94872408F48FEF08959B01AC0160E01E
:1055A00070E080E89FE30C9458299F930E948B2A17
:1055B0000F9007FCEE5F0C94B42A19F416F40C94C7
:1055C00087270C94542A0E94B127B8F39923C9F372
:1055D000B6F39F57550B87FF0E942C2B0024A0E6A3
:1055E00040EA900180585695979528F4805C660FA4
:1055F000771F881F20F026173707480730F4621BF3
:10560000730B840B202931294A2BA69517940794F4
:10561000202531254A2758F7660F771F881F20F06D
:1056200026173707480730F4620B730B840B200DE5
:10563000311D411DA09581F7B901842F9158880F24
:105640009695879508959B01AC010C94AB240E941C
:105650008724880B990B089591505040660F771F4F
:10566000881FD2F708959F938F937F936F93FF9333
:10567000EF939B01AC010E94AB24EF91FF910E943C
:10568000622A2F913F914F915F910C94AB24AA1BFA
:10569000BB1B51E107C0AA1FBB1FA617B70710F01D
:1056A000A61BB70B881F991F5A95A9F7809590954F
:1056B000BC01CD01089597FB072E16F4009407D086
:1056C00077FD09D00E94472B07FC05D03EF490954A
:1056D00081959F4F0895709561957F4F08950E9421
:1056E0006528B7FF0895821B930B0895EE0FFF1FE7
:1056F0000590F491E02D0994CF93DF9382309105CA
:1057000010F482E090E0E0917B06F0917C0620E0CE
:1057100030E0C0E0D0E0309711F14081518148176E
:105720005907C0F04817590761F482819381209787
:1057300019F09B838A832BC090937C0680937B0611
:1057400026C02115310519F04217530718F49A01A4
:10575000BE01DF01EF010280F381E02DDCCF2115D6
:10576000310509F1281B390B2430310590F41296CC
:105770008D919C9113976115710521F0FB01938325
:10578000828304C090937C0680937B06FD01329651
:1057900044C0FD01E20FF31F819391932250310920
:1057A0002D933C933AC02091790630917A06232BB1
:1057B00041F420915A0130915B0130937A06209395
:1057C000790620915801309159012115310541F494
:1057D0002DB73EB740915C0150915D01241B350B04
:1057E000E0917906F0917A06E217F307A0F42E1BF8
:1057F0003F0B2817390778F0AC014E5F5F4F241735
:10580000350748F04E0F5F1F50937A064093790694
:105810008193919302C0E0E0F0E0CF01DF91CF915E
:1058200008950F931F93CF93DF93009709F48CC0D3
:10583000FC0132971382128200917B0610917C0644
:105840000115110581F420813181820F931F209170
:10585000790630917A062817390779F5F0937A0698
:10586000E093790671C0D80140E050E0AE17BF0761
:1058700050F412962D913C911397AD0121153105ED
:1058800009F1D901F3CF9D01DA01338322836081CD
:105890007181860F971F8217930769F4EC012881A5
:1058A0003981260F371F2E5F3F4F318320838A8136
:1058B0009B8193838283452B29F4F0937C06E093AC
:1058C0007B0642C01396FC93EE931297ED0149912B
:1058D00059919E01240F351FE217F30771F480815F
:1058E0009181840F951F029611969C938E938281CD
:1058F000938113969C938E931297E0E0F0E0D80189
:1059000012968D919C911397009719F0F8018C01D4
:10591000F6CF8D919C9198012E5F3F4F820F931F80
:105920002091790630917A062817390769F4309763
:1059300029F410927C0610927B0602C01382128218
:1059400010937A0600937906DF91CF911F910F9102
:10595000089581E090E0F8940C947D2FFB01DC0128
:1059600004C08D910190801921F441505040C8F736
:10597000881B990B0895DC0101C06D934150504084
:10598000E0F70895FC018191861721F08823D9F76B
:10599000992708953197CF010895FB01DC0141500B
:1059A000504048F001900D920020C9F701C01D92AF
:1059B00041505040E0F70895AEE0B0E0E2EEFCE286
:1059C0000C943C280D891E8986E08C831A830983F8
:1059D0008FEF9FE79E838D83AE01475E5F4F6F8998
:1059E000788DCE0101960E94FF2C2F813885F80119
:1059F000E20FF31F10822E96E4E00C945828ACE0DE
:105A0000B0E0E5E0FDE20C942E287C016B018A01F8
:105A1000FC0117821682838181FFBDC1CE010196F0
:105A20004C01F7019381F60193FD859193FF8191DC
:105A30006F01882309F4ABC1853239F493FD859158
:105A400093FF81916F01853229F4B70190E00E94A4
:105A5000E72EE7CF512C312C20E02032A0F48B32FE
:105A600069F030F4803259F0833269F420612CC03F
:105A70008D3239F0803339F4216026C022602460F1
:105A800023C0286021C027FD27C030ED380F3A30F1
:105A900078F426FF06C0FAE05F9E300D1124532EE5
:105AA00013C08AE0389E300D1124332E20620CC0C2
:105AB0008E3221F426FD6BC1206406C08C3611F4B1
:105AC000206802C0883641F4F60193FD859193FF6A
:105AD00081916F018111C1CF982F9F7D9554933093
